:020000040800F2
:1000000048A50220DD01000849A50008859C0008DC
:1000100045A50008A1790008C1A70008000000005C
:1000200000000000000000000000000065A60008BD
:10003000B97C0008000000004BA5000869A6000874
:10004000F7010008F7010008F7010008F7010008B0
:10005000F7010008F7010008F7010008F7010008A0
:10006000F7010008F7010008F7010008F701000890
:10007000F7010008F7010008F7010008F701000880
:10008000F7010008F7010008F7010008F701000870
:10009000F7010008F7010008F7010008F701000860
:1000A000F7010008F7010008F7010008F701000850
:1000B000F7010008F7010008F7010008F701000840
:1000C000F7010008F7010008F7010008F701000830
:1000D000F7010008F7010008F7010008F701000820
:1000E000F7010008F7010008F7010008F701000810
:1000F000F7010008F7010008F7010008F701000800
:10010000BD7C0008F7010008F7010008F7010008AE
:10011000F7010008F7010008F7010008F7010008DF
:10012000F7010008F7010008F7010008F7010008CF
:10013000F7010008F7010008F7010008F7010008BF
:10014000F7010008F7010008F7010008F7010008AF
:10015000F7010008F7010008F7010008F70100089F
:10016000F7010008F7010008F7010008F70100088F
:10017000F7010008F7010008F7010008000000007F
:10018000F7010008F7010008F7010008F70100086F
:10019000F7010008F7010008F7010008F70100085F
:1001A00061A0000851A00008F7010008F70100084D
:1001B000F7010008F7010008F7010008F70100083F
:1001C000F7010008F7010008DFF80CD000F0B2F8E2
:1001D0000048004709AA000848A5022006488047B1
:1001E00006480047FEE7FEE7FEE7FEE7FEE7FEE71C
:1001F000FEE7FEE7FEE7FEE75DA70008C90100088D
:100200002DE9F05F0546002092469B46884606464B
:10021000814640241BE0284641464746224600F0DE
:1002200078F853465A46C01A914110D311461846E1
:10023000224600F05FF82D1A67EB01084F46224670
:100240000120002100F056F817EB00094E41201E56
:10025000A4F10104DFDC484631462A464346BDE8A6
:10026000F09F10B5441A0346944209D284181144F1
:1002700003E011F8013D04F8013D521EF9D210BD12
:1002800040EA0104A40703D009E010C9121F10C3FB
:10029000042AFAD203E011F8014B03F8014B521E75
:1002A000F9D210BDD2B201E000F8012B491EFBD2F9
:1002B00070470022F6E710B513460A460446194671
:1002C000FFF7F0FF204610BD30B50B460146002079
:1002D0002022012409E021FA02F59D4205D303FA08
:1002E00002F5491B04FA02F52844151EA2F1010289
:1002F000F1DC30BD202A04DB203A00FA02F10020B4
:1003000070479140C2F1200320FA03F31943904053
:100310007047202A04DB203A21FA02F000217047BE
:1003200021FA02F3D040C2F120029140084319465D
:1003300070470000064C074D06E0E06840F00103FE
:1003400094E8070098471034AC42F6D3FFF740FF1B
:10035000941A0108B41A01082DE9F04F40F2C3269F
:100360004FF47A7385B02B4F5643144680460125CF
:10037000894696FBF3F60223013692FBF3F302FB68
:1003800002330244001B01933B685B6E1B68984775
:1003900008EB0503029308F1FF330393B54235DC04
:1003A00004FB04F3019A05FB05339A4218DAB442C0
:1003B00015DD029B04EB0901C5EB030A039B03EB6C
:1003C000050B3B6850465B6E5A461B6898473B6876
:1003D0005A46C4EB09015B6E50461B689847013CC6
:1003E0003B68C4EB080A04EB080B09EB05015B6EE4
:1003F00050465A461B6898473B68C5EB09015A4668
:100400005B6E504601351B689847C7E705B0BDE8ED
:10041000F08F00BF4000002008B50E4B186803F0B5
:100420003DFB0D4B186803F071FB012001F046FF06
:10043000002001F04BFF002001F052FF002001F0EE
:100440000DFF064B186801F00BFF0020BDE80840C7
:1004500001F010BF706202203C0000203800002034
:100460004D4B1A68D1692DE9F04FCC698BB0A38947
:10047000834208D8E589854205D32568C31A4FF021
:10048000FF36069513E0A368002B7CD01D88A84298
:1004900079D35E88864276D3401B5B68666880B2FB
:1004A000069603EB800533F92030B5F90260581C3D
:1004B000099368D091F818B0A17CB2F92A901BFB7F
:1004C00001F3354D4846B2F92270B2F92480079302
:1004D00094F810A003F04AFB2968079BCA69896B4E
:1004E000089018460591099B069900FB03104146A8
:1004F00004903846A37C039301230293D37E019397
:10050000937E524600935B4602F0F4FE731C1AD0B1
:1005100049F0020003F02AFB2A6806993846D3699D
:10052000926B0592079A02FB061641460496A27C3E
:10053000039201220292DA7E019252469B7E009340
:100540005B4602F0D7FE2B68DB695A7E1B7E9A421F
:1005500015D9B9F1020F12D089F0040003F006FB9F
:100560000D4B1B68DB69187ED97E9A7E5B7E00FB93
:1005700001810AFB02723846434403F025F89DF8D6
:10058000200003F0F3FA044B617C1A68538C0B448F
:1005900053840BB0BDE8F08F40000020044B1B6873
:1005A000DB69DB6909B11A7C0A60587C704700BFBF
:1005B0004000002002230B807047C3699A898A4259
:1005C00002D8DA898A420FD2986880B103889942AA
:1005D0000CD342888A4209D3C91A436833F82100F0
:1005E000C043C0F3C03070470120704700207047FF
:1005F0002DE9F04F384C89B0064601462368B3F91F
:100600002A80DB69D86900F092F8002860D005885C
:1006100047684046751B07EBC50696F802A003F035
:10062000A5FAD4F800C0814617F83520DCF81CE0A4
:10063000DCF838309EF818B0BCF92410BCF9220060
:100640004FF0010C05937368CDF80CA004935B4642
:10065000CDF808C09EF81BC0CDF804C09EF81AE083
:10066000CDF800E002F046FE2368DB69597E93F87E
:1006700018A00791514520D9B8F1020F1DD093F869
:100680001BB000F0C9FB804600F0AEFB01F0E4FDBA
:1006900023680799B3F924E0B3F92200DB6917F85E
:1006A0003550DA7E0BFB01E30BFB0AE105FB02028E
:1006B00002F08AFF404601F0CFFD484603F056FAAB
:1006C00023687178DA69907E5A8C00FB01225A8483
:1006D00009B0BDE8F08F00BF4000002038B50D4BD9
:1006E00002460C4601461B68DD69E86900F01FF808
:1006F00070B10388D21A436803EBC2014878A97E1F
:1007000010FB01F024B113F8323011FB03F3236026
:1007100038BD00BF4000002001230B80704708B5A2
:10072000C06900F004F8003018BF012008BD38B1DE
:1007300003888B4202D843888B4201D28068F6E757
:10074000704708B104F06CBD7047000073B50646F1
:10075000FFF7F7FF054660B100F0A6F802AC064BC4
:10076000324644F8040D00211B689847204600F0EB
:10077000BDF8284602B070BD5C000020024B21F09D
:1007800003011860596070475C62022010B504468E
:1007900060B1074B5B6B03EBC0035968486804F01A
:1007A000EDFC2046BDE8104006F0DABC10BD00BFED
:1007B0004064022028B1034BDA6B026002B1506042
:1007C000D8637047406402202DE9F0410746264E69
:1007D00006F07AFA0337306CF26B27F00307144601
:1007E0000437874238BF074634B154F8043C9F426F
:1007F00023682CD01C46F7E7F368B26B02EB0308C2
:1008000058F8045CC5EB08052B6833B1204606F0A8
:1008100007FD58F8045CC5EB08052B680BBB6B683B
:100820009F421EDC28461C1D06F0DAFCF36868684F
:10083000E41BDB1BC01B2C44F36073693B447361F6
:1008400002D0294604F09AFC44F8047C09E00BB17C
:1008500061685960616801B10B60A24201D12368EF
:10086000F3632046BDE8F0814064022008B506F03D
:100870002BFA00230B4A9918D1F8BC0010B18368F9
:1008800000200BE0083B13F1800FF4D108E05A6818
:100890009B68904238BF104613B19B68002BF6D17D
:1008A0000C3808BD40640220054BDA690132DA6178
:1008B0005A6B12F83030013302F8303000F02EB8A5
:1008C0004064022008B5FFF7D1FF6422B0F5800F25
:1008D000054B85BF90FBF2F01B6A1B6A58439CBF17
:1008E0005843B0FBF2F008BD4064022003680A4997
:1008F00030B553F8085C4C6B14F83530012B03D934
:10090000CA690AB1013ACA61013B04F835300023D3
:100910000360184630BD00BF40640220034B5B6B90
:1009200003EBC00040680830704700BF40640220FD
:10093000C3B2CAB29A1AC0F3072392B210B514B266
:10094000002CBCBF524214B2C1F30722090C9B1AFF
:10095000C1EB10419BB289B21AB208B2002ABCBFE7
:100960005B421AB20028B8BF494202FB02F2B8BF8C
:1009700008B204FB042280B200FB002010BD00007E
:10098000002110B5084600F0A9FA43F6FF730349A9
:100990001A460846BDE8104000F002B801C0FFFF4B
:1009A0002DE9F3410446042016461F460D4603F088
:1009B000DDF8134B80466846DB68DA6C1B6D144427
:1009C00016441D441F44ADF80040ADF80460ADF876
:1009D0000250ADF8067004F049F828B9404603F01B
:1009E000C5F802B0BDE8F0813B46324629462046B4
:1009F00002F0EAFD03F050FF0028F5D1EEE700BF5A
:100A00003400002080B582B000AF7860054B1B68D1
:100A1000002B03D0034B1B687868984700BF08374A
:100A2000BD4680BD00650220012BF8B506460D4687
:100A300017461C4601DD0020F8BD1C20FFF7C4FE50
:100A40000028F8D00DB1056109E0094B53F82410D6
:100A500029B10B680BB11946FBE70B690361002351
:100A600084618782C660036043608360F8BD00BF15
:100A70001C65022038B51D46FFF7D6FF044648B175
:100A800000F00EF8E3681B6823B9034B16351B68AA
:100A900043F82540204638BD40000020FFF78ABEBD
:100AA00030B508B9012030BD8469012CFADC1B4B3C
:100AB0001A789442A4BF621C1A70194A52F8243062
:100AC00015461BB942F82400184630BD5A680AB1D1
:100AD0001346FBE7C2681268D9680968914203DDD2
:100AE0001B68002BF8D1DDE709D1818A012906D1E5
:100AF000196821B10B46C96809688A42F8DD5A684D
:100B000012B11060426001E045F82400586098423C
:100B100008BF00230360002030BD00BF186502201D
:100B20001C65022081690A4A52F821309842036804
:100B300004D142F821300BB100225A60426802B160
:100B40001360036803B15A60002303604360704779
:100B50001C650220012809DC054B53F8200020B158
:100B6000C3681B681BB10068F9E770470020704735
:100B70001C65022070B50446094E07F05FF9044475
:100B800007F05CF9251A002D08DD00F0B9F830688F
:100B9000A842A8BF284607F045F9F1E770BD00BF9D
:100BA000440000202DE9F04F054685B000287FD095
:100BB000414C00F03FF907462368A146B3F9228073
:100BC00000F064F9226886B2938C9B1B93842B7887
:100BD000002B61D047F6FF71284602F0B3F90146B9
:100BE0008246284602F07EF92268938D03F00303C3
:100BF000012B04D0022B04D190FBF3F302E0034657
:100C000000E00023518C1FFA80FB2846CB1A9BB2D0
:100C100019B25184ADF808100BF1FF31B2F924205C
:100C20000B445146ADF80A20013AADF80C30BBB286
:100C30001A440193ADF80E2002AA01F0FBFE2268CF
:100C4000BDF80A1028469184514601F0F3FB2A5C56
:100C500005EB000E019B0A2A01D00D2A12D1226851
:100C6000918D01F00301013901298ABF118CA2F88D
:100C7000228051849EF800100A290AD1918C0B44DD
:100C8000938406E0BDF80800D9F800308344A3F847
:100C900022B09EF8003043B923689A8C16449A8D8E
:100CA00022F003029E849A8502E00EF101058EE790
:100CB00005B0BDE8F08F00BF40000020024B1B686C
:100CC00059849A84FFF76EBF40000020F8B50B4BA3
:100CD00005460E4617461B68B3F92C0040F002008B
:100CE00001F0F4FA04463A4628463146FFF7E6FF9B
:100CF0002046BDE8F84001F0E9BA00BF40000020FE
:100D000010B5002400F006F808B10124FAE72046E7
:100D100010BD00000C4B10B51C681CB1A047041C92
:100D200018BF012403F0A4FA084B00281B6818BF61
:100D300001241BB19847002818BF0124044B1B68ED
:100D400003B19847204610BD386502203C6502205B
:100D5000346502200D4B1B682DE9F041044600204C
:100D60000D461646DF6CD3F8508003F07FFE50B17D
:100D700045443C44324629462046FFF7EDFA03F04D
:100D80008BFD0028F6D1BDE8F08100BF40000020B7
:100D9000F7B50F4C2568EC6C2D6D261814446F18B0
:100DA0001D446846ADF80060ADF80440ADF802702F
:100DB000ADF8065003F05AFE40B12B4622463946A4
:100DC000304602F001FC03F067FDF5E703B0F0BD2B
:100DD00040000020034B082153F82000C3689B6AA1
:100DE000184700BF1C65022008B502F01DFCBDE8D5
:100DF000084002F0E1BC0000024B00211B68DB69E7
:100E00005B68184740000020024B1B68DB695B6889
:100E1000184700BF4000002008B502F00DFCBDE8F7
:100E2000084002F0C9BC0000014B1B68187C7047E9
:100E300040000020024B1B68DB69587E704700BFF2
:100E40004000002038B50D46144602F030FC10B1C9
:100E500000232B60236038BD044BB3F900300360DE
:100E6000034BB3F900300B60704700BF06650220EA
:100E70000865022004483523037034238370C3704F
:100E800061230371704700BF2C0000200A4B1A68D1
:100E9000938D03F00C03082B07D00C2B05D0042BEB
:100EA00007D1D369187E01387047D369187E40088E
:100EB00070470020704700BF40000020024B53F8ED
:100EC00020301B69186870471C650220024B53F8DC
:100ED00020301B69586870471C650220024B1B6854
:100EE00058840020998470474000002090B583B05A
:100EF00000AF534A524B1B6823F001031360514B60
:100F00001B68C3F30A0340F2494293420CBF01231A
:100F10000023DAB24B4B1B68C3F30A0340F2514182
:100F20008B420CBF01230023DBB21343DBB2194613
:100F3000444B1B68C3F30A0340F2524293420CBF76
:100F400001230023DBB20B43002B10D03E4B0122C8
:100F50001A6000BF3C4B1B68002BFBD13B4B3C4A4B
:100F60001A603A4B1B683B4A934218D0FEE73A4B53
:100F70001B68C3F30A03B3F58A6F10D1374B012204
:100F80001A6000BF354B1B68002BFBD1344B304A35
:100F90001A60334B1B682F4A934200D0FEE701F0E2
:100FA00031FC304B2E221A7006F04EFF2E4805F011
:100FB00049FE06F0A3FC786002F0A6FB0346002B76
:100FC0000CBF01230023DCB202F0B2FB0346002B6E
:100FD0000CBF01230023DBB22343DBB2002B09D07B
:100FE00002F09BFB044602F0ACFB03461946204688
:100FF00002F0B6FD0021002001F044F903F098F959
:101000001A4B1B68002B12D00DE0184B1B681B6895
:10101000002B03D0154B1B681B689847134B1B68AC
:101020005B68124A1360114B1B68002BEDD1104B0B
:1010300001221A707B6818460C37BD4690BD00BF70
:10104000002000E0002004E00830024000300240B0
:10105000C2A507F4CDB5E8B50010005C084C0258F5
:10106000004C02580465022074620220EC620220E7
:101070001065022013B518B90D4B1B68186EA8B186
:10108000FFF712FC02AB446943F8080D1846FFF75E
:101090002DFC5CB1204602ACFFF706FC836844F8E7
:1010A000040D9B6898472046FFF720FC02B010BD56
:1010B00040000020014A114600F002B801F0FFFF95
:1010C0002DE9F0430C4685B015460646002843D06E
:1010D000002001F0C3F8224B074630461B68D3F8C6
:1010E0006080FFF7E1FB03680190986901F09CF8CC
:1010F000019A1C4B81469C42138908BFB2F90440F7
:1011000003F1FF3308BFB2F906502344ADF808409D
:10111000ADF80A50ADF80C305389013B2B44ADF8C3
:101120000E3002F0DBFE01A8FFF7E0FB02A803F09F
:101130009DFC48B9484601F077F8404600F082F936
:10114000384601F08BF807E02A462146304600F089
:1011500073FB03F0A1FBECE705B0BDE8F08300BF33
:101160004000002001F0FFFF2DE9FF479946194B91
:1011700006460F461B6890460C9D587C164B53F84C
:101180002040E3681B68042B06D02468002CF8D1AB
:10119000FFF7E0FC044630B1E36801212046DB6A3A
:1011A0009847824608B9002010E02469A368984750
:1011B00001304B46424604BF45F00105074C394615
:1011C000304602948DE8200400F0C6F904B0BDE872
:1011D000F08700BF400000201C650220641A01084F
:1011E00037B50446D0B10E4B1B681B6E984201D137
:1011F00001F010F82046FFF757FB0190406908B155
:1012000001F00EFA02AD55F8043D1868FFF746FCF0
:101210002846FFF76BFB2046FFF7B8FA03B030BD56
:10122000400000202DE9F04F984687B0514B06460C
:1012300003921A689B460291547C4F4A20461257EB
:10124000012A06DD02F066FA8146204602F076FAAF
:1012500005E002F048FA8146204602F04AFA0446C8
:1012600036B305A904A8FFF7F7FD049A059B91443E
:10127000B6F900701C44B6F9025009F1FF3227EAB2
:10128000E77725EAE575B6F90490013CB6F9063032
:101290004A45D4BFC7EB0209C7EB09099C42D4BF3A
:1012A000C5EB0404C5EB030409F10109013401E0B5
:1012B00035463746B8F1000F01D1C4F10008B9F145
:1012C000000F53DD002C51DD109B4A46294638465D
:1012D00000934346FFF748FF064620B90398029B58
:1012E0009847012043E000F071F88442804606D020
:1012F000DBF80030986C10B1322103F0A9FEA24651
:101300004FF00009304600F09DF8D04503DD51460E
:10131000304600F081F8B9F1000F08D0304609EBF3
:101320000502394600F0B4F83046FFF7A3FE029BF1
:1013300003989847114B1B680BB100209847C14494
:101340003046FFF7B7FEC8EB0A0A4C45DDDC3046F5
:10135000FFF746FF002000F075F8444506D0DBF8A3
:101360000030986C10B1332103F072FE002007B0FA
:10137000BDE8F08F400000201A650220386402208A
:1013800037B5044670B1FFF78FFA036802AD1B69E9
:1013900045F8040D9B68984702F089FD04462846ED
:1013A000FFF7A4FA204603B030BD13B558B1FFF7DC
:1013B0007BFA02AB00F1180443F8040D1846FFF75E
:1013C00095FA2046FFE702B010BD000013B518B92A
:1013D000094B1B68186E50B1FFF766FA02ABB0F903
:1013E0000A4043F8040D1846FFF780FA00E004466F
:1013F000204602B010BD00BF4000002038B50546B1
:101400000524284604F064F810B9013CF9D138BD30
:10141000BDE8384000F068B813B50C4618B9084B61
:101420001B68186E50B1FFF73FFAB0F90A3001900F
:10143000A342C8BF448101A8FFF758FA02B010BD0B
:1014400040000020114BF7B51A6806461C46176E7F
:1014500010B900F0DFFE16E00FB100F0DBFE02F085
:1014600039FE3046FFF720FA02AD236845F8040D37
:101470001E660068FFF714FB2846FFF737FA02F0F4
:10148000D9FB02F035FB384603B0F0BD4000002028
:1014900037B50D46144618B9124B1B68186EF8B1D3
:1014A00024B22DB2FFF700FAC4808580009002F0CC
:1014B0001FFB009B586980B1FFF7F6F9009B019074
:1014C000B3F90820B3F90A308280C38012B10BB19E
:1014D0000580448001A8FFF709FA6846FFF706FA7D
:1014E00003B030BD40000020014A114600F002B8B0
:1014F00001F0FFFF7FB50C461546064640B3FFF7E7
:10150000D3F9144B01909C42038908BFB0F9044001
:1015100003F1FF3308BFB0F906502344ADF808408B
:10152000ADF80A50ADF80C30438901A8013B2B44BB
:10153000ADF80E30FFF7DAF902A803F097FA38B1E8
:101540002A462146304600F05BF903F0A5F9F6E79C
:1015500004B070BD01F0FFFF2DE9F04F464D87B09C
:101560001C4681462B688A46904612995B7C002275
:101570001198109FFFF758FA0395064680B3036948
:101580009B68984702F093FC00FB08F50290FFF778
:1015900099F917F0010705F1070508BF04234FEA81
:1015A000D50504BF90FBF3F000EB4000002C44DCB9
:1015B0001DB11838B0FBF5F000E0284664428442C3
:1015C000A8BF044677B9009723464246514648468D
:1015D00000F0AEFF002C834639DC3046FFF75EFAA0
:1015E000002046E0002CF8DD05FB04F01830FFF782
:1015F000A8F807460028F0D04FF0000B3846FFF758
:1016000053F9029A034606A8A3F8049040F8043D53
:10161000A3F806A01E60A3F808805C81DD601A6153
:10162000C3F814B0FFF762F9129BB7603361039BF4
:101630001B685B7CB36138461BE0002FD4D1009758
:10164000234642465146484600F072FF834605FB5A
:1016500004F01830FFF77AF807460028CED130465C
:10166000FFF71CFABBF1000FBAD05846FFF78EF80F
:10167000E1E707B0BDE8F08F400000202DE9F04F12
:101680005C4C91B05C4F8846236815460C905B7C9F
:1016900057F82330D3F810A0FFF706F9034610A837
:1016A000B3F9086040F8083DB3F90A901B681B695C
:1016B0005B680893FFF71AF9236808215B7C57F8E9
:1016C0002300C3689B6A98471728074604D8032855
:1016D00014BF0746082700E02027DAF8043000206E
:1016E0000993DAF800300A9300F0AEFF00287ED1AB
:1016F000226808EB0604B2F90C30013CE41AB2F996
:101700000830002CCCBF341B34469845B7BFC8EB1B
:10171000030100219846641A002C68DD05EB0903DB
:10172000B2F90E00B2F90A20013B1B1A002BC8BF08
:10173000C3EB09099542B7BF531B00231546C3EB02
:101740000909B9F1000F52DD03FB06118B00079365
:1017500005EB09030B930C98FFF727FE0FAB079AD5
:1017600029460193089B821840460093234601F0C6
:10177000B5F9814600283AD0099B1A461F4B9A4278
:101780001CD053463A46214601F035F8B0B9DAF894
:1017900010B0BBF1000F05D004233246494648463D
:1017A000D8470BE04B46B34618680D930A9B984701
:1017B0000D9BBBF1010B43F8040BF5D10023CDF8D1
:1017C0001090029722460593294603930123404631
:1017D00005F1010B0193009301F08CFD079B03EBD6
:1017E000860307930B9B9B4501D05D46B3E711B081
:1017F000BDE8F08F400000201C650220D7370008AC
:101800002DE9F3410F4690460646FFF74DF8036871
:1018100002AC1621DB6844F8040D00205B6A98478F
:1018200005462046FFF762F81DB14246394630466C
:10183000A84702B0BDE8F0812DE9F04F9BB0054606
:1018400008910992002800F09983FFF72DF81AAB50
:10185000446943F81C0D1846FFF748F82846FFF77F
:101860008FFD08280746A54E02DD002C00F0C98137
:101870000123002728460DF1680919930D93189745
:10188000FFF712F80268B0F90A3012690E93536834
:10189000326849F8140D0469D0F81480D0F80CA00F
:1018A000B0F908B0507C0C93FFF794FA32680B90B3
:1018B000507CFFF70BFB0A904846FFF717F8082CFF
:1018C0000A9A0D9B04D9102C8CBF0423022305E037
:1018D000012C03D118AB0D940A9301E00D930A97E4
:1018E0000C9B934200F0DF803368587CFFF7E6FAE8
:1018F0000F904FEA8B00FEF724FF1090002800F0B5
:101900003D832846FFF751FD0546B8F1000F00F072
:10191000B9804046FEF7C8FF05EB0A03DDF82490C6
:101920001193002316900993119B099ACAEB0307A0
:101930000E9B934240F3A280002316980DF15C08A1
:10194000099A1793836841465B6998478345054622
:1019500028D11098FEF7A8FF0F9B082C0146019391
:101960005A460C9B1490384600930B9B02D903F007
:101970003DFD01E003F059FD0A9B1AAD08985A4657
:101980000593494655F8183D0493002303930B9B98
:10199000029301230193009301F0ACFC2846FEF76B
:1019A000A5FF62E0012C02D04FF0010857E0002DA6
:1019B0005BD017982A46089E494600F00703CDF8E9
:1019C0000CA006930A9B0593082390FBF3F33B447A
:1019D00030440493012302930193009302F03CF9F5
:1019E000179B169841461D44099A836817955B69B1
:1019F00098470546DBE71098FEF756FF0F9B014618
:101A000014900193082C0C9B2A4617980D9E009366
:101A100000FB06700B9B25D903F0E8FC0A9B2A46C5
:101A2000179849460593149B089E0493002330445D
:101A3000CDF8048003930B9BCDF800800293012323
:101A400001F058FC14A8FEF751FF179B169817A930
:101A50001D44099A836817955B6998470546002DD0
:101A6000C9D102E003F0E1FCD8E7099B09F10109C3
:101A700001330993119B5344119355E716A8FEF7C0
:101A800035FF0EE00A9B5A46049005930123CDF8DA
:101A90000CA00193009302940E9B0999089801F001
:101AA00029FC109868E22846FFF77FFC0746B8F14A
:101AB000000F00F09A8000254046FEF7F5FE1690D4
:101AC0000E9BAB4240F38D80002316980DF15C080D
:101AD0002A461793836841465B69984783450646C3
:101AE00026D12E46169806F10109414683684A46DA
:101AF0005B699847834503D14E46F3E740000020D9
:101B00000A9BC5EB060809995A4608F10108059396
:101B1000012304972944CDF80CA001933546009386
:101B20004346029408980AFB087701F0E3FB56E06D
:101B3000012C099B04D02B444FF001090B932BE09F
:101B400003EB0509A0462EB3DDF85CE032460898A9
:101B500049460EF00703CDF80CA07044CDF808807C
:101B600006930A9BCDF8048005930823CDF80080E6
:101B70009EFBF3F33B440493012302F06DF8179BA3
:101B800016982A461E4417A9836817965B699847DA
:101B90000646D8E7574422E0002EFBD00A9B324687
:101BA000DDF85CE005930D9B089803FB0E730B9921
:101BB0007044CDF80CA0049301230294CDF8049056
:101BC000CDF8009001F096FB179B16982A461E440C
:101BD0004146836817965B6998470646DCE70135FE
:101BE0006EE716A8FEF782FEC8E10A9B5A460490EB
:101BF00005930123CDF80CA00193009302940E9B52
:101C00003AE02846FEF750FE83461AA8BBF90A3090
:101C100040F810BD0B93DBF80020DBF80C30D2F855
:101C200010800C93BBF90840FEF760FE3268D8F8CC
:101C30000490507CA14A52F82020166933680A9318
:101C4000FFF7C8F808280C9B06D910288CBF4FF066
:101C5000040A4FF0020A01E04FF0010AB04510D12A
:101C60000022039301230BF11800059222460193F1
:101C700000930B9B049002970999089801F03AFB96
:101C80007CE1202F40F0A2800AFB04F0FEF759FD12
:101C90000D90002800F07281FEF706FE189028468D
:101CA0004FEA840BFEF700FE16904FEACA02336932
:101CB00000F118050C9273B3DDF824804FF0010990
:101CC000BAF1020F05D0BAF1040F02D0BAF1010F38
:101CD00006D128465D443769534622461899B847CD
:101CE0000023189ACDF804904146059308F10107A6
:101CF00003930C9B0492224602930123CDF800909B
:101D0000089801F0F7FA0B9B099A13449F4200F0E0
:101D10002C81B846D4E7099F1E460B9B4FF0010962
:101D20003B440993BAF1020FDDF8608016D0BAF196
:101D3000040F24D0BAF1010F30D143462A4652F89D
:101D4000040B0E930A9B0B9298470E9B0B9A03F879
:101D5000010BE11A18EB010FF1D11EE043462A46B0
:101D6000A04652F8040B0E930A9B0B9298470E9BC9
:101D7000B8F101080B9A23F8020BF2D10DE02A46C4
:101D8000234652F8040B0E930A9B0B9298470E9B26
:101D900048F8040B013B0B9AF3D15D44189B224693
:101DA00005963946049307F101080C9B03960293AC
:101DB0000123CDF80490CDF80090089801F09AFA2C
:101DC000099B434500F0D1804746ABE7102F40F018
:101DD000D58004FB0AF0FEF7B4FC0D90002800F05B
:101DE000CD80FEF761FD18902846FEF75DFD169048
:101DF000336900F1180713B1D8F8143053B94FEA1A
:101E0000CA03099D66004FF0000B0C930B9B2B44FB
:101E1000099383E0B0F908008000FEF792FC0C9073
:101E200018B1FEF741FD179001E00C9B1793179B2B
:101E3000002B00F09A806300DDF824B00A934FEA8B
:101E4000CA030E93BAF1020FDDF8609006D0BAF122
:101E5000040F05D0BAF1010F11D101E0534600E0A3
:101E60000223384622461799D8F81450A8475346FB
:101E70002246494617983569A8470A9B1F44002304
:101E8000189A5946089805930BF1010903930E9B84
:101E900004922246029301230193009301F02AFA4F
:101EA0000B9B099A1344994501D0CB46CAE717A862
:101EB000FEF71CFD0C98FEF769FC56E01C6502203D
:101EC000BAF1040F41D0BAF1010F11D143463A469D
:101ED00032F8020B0E930B92C8470A9B98470E9B51
:101EE0000B9A03F8010BE11A18EB010FF0D13744FC
:101EF000189B2246CDF814B02946049305F1010839
:101F00000C9BCDF80CB00293012308980193009329
:101F100001F0F0F9099B434527D04546BAF1020F7D
:101F2000DDF86080CCD143463A46A04632F8020B39
:101F30000E930B92C8470A9B98470E9BB8F1010875
:101F40000B9A23F8020BF1D1D1E73A46234632F837
:101F5000020B0E930B92C8470A9B98470E9B48F8BA
:101F6000040B013B0B9AF2D1C1E716A8FEF7BEFCA9
:101F700018A8FEF7BBFC0D98FEF708FC1BB0BDE8E7
:101F8000F08F00BFF7B517490B6A002B164B0CBF3B
:101F9000064600269D57012D21DD01EB86031A69B7
:101FA000541C1C61DAB951F8267011469C689A6875
:101FB0000132AA4208BF0A46BA429A601646F6D0D3
:101FC000FEF7C8FD019050B1C368212101A85B6AEA
:101FD0009847034618B1324621460198984703B006
:101FE000F0BD00BF106302201A65022070B50A4CD4
:101FF00005460E46636A2BB92046084B40F8243F3D
:1020000001F0FAF8236A002B054B18BF0025012EBA
:10201000B8BF01265E5570BD10630220C56E000872
:102020001A650220084B1A6A002A18BF002003EB29
:10203000800210B59469002CA2BF43F820104FF025
:10204000FF33936110BD00BF10630220144B1A6A66
:10205000002A144A73B50CBF0446002405461257E3
:10206000012A1ADD03EB84042369013B2361A3B930
:102070000120A840FEF7C6FCA6682846A661FEF728
:1020800069FD019048B1C368222101A85B6A9847A5
:10209000034610B131460198984702B070BD00BFA9
:1020A000106302201A65022010B538B309B30AB3D1
:1020B000B2F90040B1F90030A342A8BF2346B2F9FB
:1020C00002400380B1F90230A342A8BF2346B2F90F
:1020D0000440B2F906204380B1F90430A342B8BFEE
:1020E00023468380B1F906309342B8BF1346C380BC
:1020F00010BD11460B6803604B68436010BD68B1AA
:1021000089B2038892B20B440380838819444388C0
:10211000134481804380C3881A44C2807047000002
:10212000094A136851688B4210B50BD0074CA34283
:1021300093E8030014BF0833503B136002F0EEF93C
:10214000012010BD002010BD500000209863022027
:10215000F0B4164D049E2D68059CB5F90870B84280
:10216000B8BF3846B5F90C70BA42A8BF3A4690429B
:102170001ADCB5F90A70B5F90E50B942B8BF394644
:10218000AB42A8BF2B468B420EDBE5682D6835F0CD
:10219000040504D105940496F0BC01F08DBB2568BC
:1021A000002DF7D02C46F0E7F0BC7047400000202F
:1021B000B0F90220B1F906309A4214DCB1F90220DC
:1021C000B0F906309A420EDCB0F90020B1F90430C3
:1021D0009A4208DCB0F90400B1F900308342CCBF68
:1021E00000200120704700207047000008B5034B15
:1021F000014674221868FEF734F808BD400000203C
:1022000008B5034B74221968FEF72BF808BD00BF10
:102210004000002008B501F021FC01F00BFDBDE8F5
:10222000084001F05BBE000070B5084D012804466F
:102230002B685E7C08D8FEF78DFC28B12B685C7497
:10224000FFF7E8FF024B1C60304670BD40000020E5
:1022500060A5022001F022BC01F058BC01F086BC50
:10226000034B1B68DA6900B1D8611046704700BFA4
:1022700040000020024B1B689A7E987610467047FB
:1022800040000020094B0A4610B41880084B198002
:10229000084B1B68597C084B53F82130D9680C6AED
:1022A0000146184623465DF8044B18470665022090
:1022B00008650220400000201C650220024B1B68BC
:1022C0001A7E18761046704740000020034B1B68AA
:1022D000B3F92C2098851046704700BF40000020BD
:1022E000034B1B68B3F92A2058851046704700BF7E
:1022F00040000020024B1B6803B11847704700BF25
:10230000A4630220024B1A6802B91860FFF7F2BFFB
:102310004463022073B5044650B3164E3568A84294
:102320000BD1FEF7C1FA02AB826843F8040D1846E0
:10233000326015E06846FEF7D9FA9DB12846FEF7EF
:10234000B3FA85680090AC42F4D12046FEF7ACFAAF
:10235000009B8268019001A89A60FEF7C7FA684660
:10236000FEF7C4FA204605F0D7F92046FEF70EFA2C
:1023700002B070BDEC63022013B50C4668B1FEF7E5
:1023800093FA828902AB224243F8040D184614BF27
:1023900001240024FEF7AAFA00E00124204602B03E
:1023A00010BD0000002337B503600546084B1C68CC
:1023B00054B12046FEF778FA02AB026943F8040DE7
:1023C00018462A60FEF792FA204603B030BD00BFDF
:1023D000EC630220002373B50B600E46044690B1F7
:1023E000FEF762FA02AD846845F8040D44B1284650
:1023F000FEF77CFA2046FEF757FA03690190336036
:102400002846FEF773FA204602B070BDF8B5084EB4
:1024100005460468336820461B68984733680746BA
:1024200020465B689847204428603846F8BD00BFC6
:1024300028650220F8B506460D460024054F3DB13B
:102440003B683046013D5B68984706440444F6E724
:102450002046F8BD286502202DE9F843089C054672
:10246000884699461444AB68561C414628465F6826
:102470004B46B847B4423246F5D1BDE8F883F8B5CB
:10248000B0F90040091BB0F90440A14232DA0B4414
:10249000B0F90250CE1001F00704013B521B056950
:1024A000FF21DF4305FB026541FA04F407F007074B
:1024B000D6EBE30605F11405E4B201FA07F700EBE9
:1024C000050210F805E0FFB204D13C404EEA0404D6
:1024D0004455F8BD44EA0E04531C4455751E002DA6
:1024E00005DD18462A46FDF7E6FE03462B441C7818
:1024F0003C431C70F8BDB0F90030C91AB0F9023085
:10250000D21A03695A438023143202EBE10201F02C
:10251000070143FA01F1835C194381547047B0F914
:1025200006300021026914305A43FDF7C4BE000092
:102530002DE9F74302F10F0480460F461646241199
:102540001D46640003FB04F01430FEF7FFF88146DB
:1025500088B1FEF7A9F90A4A034602A89A60012247
:1025600040F8043D9E80A3F800805F80DD809A8162
:102570001C61FEF7BBF9484603B0BDE8F08300BF1D
:102580007C1A0108B0F906309342F0B544DD0C68BE
:10259000B0F90460B4423FDAE31007691D4607FB57
:1025A0000232731EC5EBE30302F115051432054434
:1025B000825C04F007008240D2B23AB973B30834A7
:1025C00015F8012B013B24F00704F6E7170603D4A6
:1025D00052000134D2B2F9E7FF2A06D0204656064F
:1025E00004D552000130D2B2F9E7E01D00F0070235
:1025F000072A0DD1013B0BD415F8012BFF2A01D17D
:102600000830F7E7130603D552000130D2B2F9E7DC
:10261000001B0C600130F0BD0020F0BD1846F0BD7D
:1026200037B50546FEF740F9848902AB013C43F813
:10263000040D24B284811846FEF758F914B92846CF
:10264000FEF7A4F803B030BD1FB508B9024600E09C
:1026500003AA002302A901A800F0E8FB05B05DF879
:1026600004FB0000074B10B51C7820B101224FF08D
:10267000FF301A7002E018706FF07F4000F024FE07
:10268000204610BD19650220082A10B50EDD102A5B
:102690000ADC034600EB410150F8042B23F8022B1F
:1026A0008B42F9D1012010BD002010BD022A2AD191
:1026B0000446036801294FEA8313DBB220D0426845
:1026C00002294FEA021202F0300243EA020301D16A
:1026D000083016E0826803294FEA820202F00C02F9
:1026E00043EA020301D10C300BE0C2680439103018
:1026F00002F00302134304F8013B0029D9D1D1E7CA
:1027000004300021F7E7042A15D1044601290368A3
:1027100018BF42684FEA03130CBF00210239DBB235
:1027200017BF02F00F0204300830134304F8013BD6
:102730000029EBD1B6E7012A034654D11A680129D2
:102740004FEAC212D2B24BD05C6802294FEA84141D
:1027500004F0400442EA040201D1083341E09C68DD
:1027600003294FEA441404F0200442EA040201D190
:102770000C3336E0DC6804294FEA041404F010043A
:1027800042EA040201D110332BE01C6905294FEA0B
:10279000C40404F0080442EA040201D1143320E026
:1027A0005C6906294FEA840404F0040442EA040246
:1027B00001D1183315E09C6907394FEA440408BF7A
:1027C0001C3304F0020442EA04021FBFDC69203318
:1027D00004F00104224300F8012B0029AED161E787
:1027E00004330021F7E7014450F8042B03F8012BD0
:1027F0009942F9D156E713B50024009400F04EF841
:1028000002B010BDF0B5204D85B0D5F88030002B5A
:1028100037D101236A466E46C5F880301B4B03F161
:1028200008071868083353F8041C1446BB4203C455
:102830002246F6D1186899889B792060A3713346A7
:10284000A180134C13F8012B04F8012B1A78002AED
:10285000F8D1FEF70FFB10F8013B224604F8013BCC
:102860000378002BF7D1537005F0D2FA07F0A4FAE1
:10287000084B0948C5F8983005B0BDE8F04000F0B5
:10288000BBBC05B0F0BD00BF706202204CAC0008BC
:10289000F46202207D6E0008086302202DE9F843EF
:1028A000089F04460D46D3F80080002F08BF074656
:1028B000082A05DD102A40F3AD800020BDE8F8832A
:1028C000013A072A00F29D80DFE802F0115B9B7F4E
:1028D0009B9B9B89E06904F12009C0473043083D78
:1028E0004C46C6B207F8016B002D00F08A802068C4
:1028F000C047012D4FEAC010C6B200F08580606865
:10290000C047022D46EA8010C6B201D108347CE0EF
:10291000A068C047032D46EA4010C6B201D10C346E
:1029200073E0E068C047042D46EA0010C6B201D14A
:1029300010346AE02069C047052D46EAC000C6B2DF
:1029400001D1143461E06069C047062D46EA800079
:10295000C6B201D1183458E0A069C047072D46EA35
:102960004000C6B2B6D11C344FE0E06804F1100953
:10297000C0473043043D4C46C6B207F8016B002DFA
:102980003FD02068C047012D4FEA8010C6B23ED02C
:102990006068C047022D46EA0010C6B201D1083473
:1029A00036E0A068C047032D46EA8000C6B2DCD1FD
:1029B0000C342DE0606804F10809C0473043023D43
:1029C0004C46C6B207F8016BDDB12068C047012D47
:1029D0004FEA0010C6B2EDD104340025F2E71E69BB
:1029E0002EB101232A4639462046B04709E07E1E13
:1029F00054F8040BC04706F8010FF3432B44DF42A1
:102A0000F6D10120BDE8F883043400256AE70434D8
:102A10000025B2E71E691EB102232A463946E4E7C3
:102A2000023F54F8040BC047013D27F8020FF8D1CC
:102A3000E7E70000274B1B68F7B505460E4663B174
:102A4000002002F013F8002841D06A46314628469B
:102A500002F0F0FD01F020FFF5E71F4C6B46106817
:102A60005168226803C3B2F84C70BDF80030B2F868
:102A700050003B44BDF80210BDF80420ADF8003012
:102A80000144BDF806303A44ADF8021003446846EC
:102A9000ADF80420ADF8063001F0E8FF236840B936
:102AA000D96C5A8C521A196D5A849A8C521A9A847B
:102AB0000DE0BDF80020314628465A84BDF80220BA
:102AC0009A846A4602F0B6FD01F0E6FEE6E703B03E
:102AD000F0BD00BF24650220400000202DE9F04F2A
:102AE00093B0002492461E461D9F11AB0A902246C9
:102AF0000B910FA83C6010A900F098F9054600283A
:102B000040F0C580119B644CB342A8BF3346099383
:102B10002368587C614B53F8203006931B690C9353
:102B2000FEF758F923680790587CFEF7CFF95C4B05
:102B30000390984205D05B4BC31A18BF012305933D
:102B400000E005950026DDF824B03546534653F8DD
:102B5000040B0D931C9B98470490030E089300F000
:102B60008480002D39D10A9B099A03EB06094A4B50
:102B70001B68B3F908304B45C4BFC9EB0305994640
:102B80000A9BAC19484603EB0208069BA40001937C
:102B900008F1FF320F9B234400930B9B1946FFF76C
:102BA000D7FA079B0F98172B07DC0C9BC5EB0B0183
:102BB000079A204400F07CF801E0059B0BB9012541
:102BC0000BE00444C9EB08082068039B9847B8F160
:102BD000010844F8040BF7D1F1E7334BB400D3F804
:102BE0001C80B8F1000F27D0109D5B460F9950460E
:102BF0002A19214410920F91C04710990F9C00236D
:102C00005AF8230000F07F42B2F17F4F54F823209E
:102C100002D141F8232006E002F07F42B2F17F4F5B
:102C200008BF41F8230001339B45E9D13B6810956B
:102C300043F001033B6028E0089B9DF82020FF2B18
:102C4000DDF8408004D10F9B1B5948F8043014E094
:102C50000F9BD2431959D2B2049B23F07F40134BF0
:102C60001B68984748F8040003E0109B049A43F857
:102C700026203B6843F001033B60BBF1010B06F1EA
:102C80000106DDF834A07FF461AF109800E0204623
:102C900013B0BDE8F08F00BF400000201C6502208B
:102CA000D7370008D53700080064022064000020F0
:102CB0002DE9F0470C1E054640F3B680082A5E68F1
:102CC00004DD102A40F39A80BDE8F087013A072A14
:102CD00000F2AA80DFE802F0042DA859A8A8A88570
:102CE000671E04F18048FB1008F1FF3807F0070762
:102CF00003F1FF3905EB880815F803A0A9448025E6
:102D00003D41EDB2C7F1070305EA0A001841B0479B
:102D100048F8040937B999F800A0012509F1FF39ED
:102D2000072702E06D00013FEDB2013CEAD1BDE8AA
:102D3000F087671E04F18048BB1008F1FF3807F0E8
:102D4000030703F1FF3915F803A005EB8808C0233A
:102D5000A9447D0043FA05F5EDB27B0005EA0A00BF
:102D6000C3F106031841B04748F8040937B90325F1
:102D700099F800A009F1FF392F4602E0AD00013FAC
:102D8000EDB2013CE9D1BDE8F087671E04F180484F
:102D90007B1008F1FF3807F0010703F1FF3915F840
:102DA00003A005EB8808F023A944BD0043FA05F50C
:102DB000EDB2BB0005EA0A00C3F104031841B047B5
:102DC00048F8040937B999F800A00F2509F1FF392F
:102DD000012702E02D010027EDB2013CE9D1BDE859
:102DE000F08705EB84072544641B15F8010DB047F7
:102DF00047F8040DE542F8D1BDE8F0875F6937B1C7
:102E000022462946BC460223BDE8F047604705EB51
:102E1000440705EB840537F8020DB047013C45F83F
:102E2000040DF8D1BDE8F087BDE8F0872DE9F8433F
:102E3000294C1D4606468846236917463BB901239F
:102E400020462361254B40F8143F00F0D5F9E36894
:102E5000DFF8849043B9224B1B68C9F80C301BB9CA
:102E600000F044FCC9F80C000DB1E3682B607EB1A2
:102E70002368194D43B9E8688000FDF7A5FC286078
:102E8000B0FA80F56D0900E000252368336000E0AA
:102E90003546B8F1000F0DD063680F4E3BB9F068AE
:102EA0008000FDF791FC0028706008BF0125636871
:102EB000C8F8003067B1A368074E3BB9F0688000DE
:102EC000FDF782FC0028B06008BF0125A3683B60C5
:102ED0002846BDE8F88300BF00640220CD6F0008DB
:102EE0000C65022037B5154A02AB019043F8081D66
:102EF0001946126890470190E8B1114B1B68DB69D5
:102F00005C690CB124680CB9254602E00099A04721
:102F100011E0009B013B002B009307DB01A8FFF7AA
:102F200075FA0446FDF768FF0544F2E7204600F015
:102F300025F82844FFE703B030BD00BF4C00002057
:102F40004000002037B50D460190044688B10A4B79
:102F50001B68DB695C6954B1646844B1A04709E04F
:102F600001A8FFF753FA20B10A2802D00134AC427D
:102F7000F6DB204603B030BD4000002013B500242E
:102F800002A941F8044DFDF73FFF019B9842B4BFF1
:102F9000181A204602B010BDB1F90030B0F9002077
:102FA0009A42B0F90220B8BF0380B1F902309A42C8
:102FB000B0F90420B8BF4380B1F904309A42B0F9A7
:102FC0000620C8BF8380B1F906309A42C8BFC380CB
:102FD000704770B5B1F900300646B2F90050B1F94A
:102FE00004409D42B8BF1D46B1F902300580B2F9D8
:102FF00002008342B8BF0346B2F9040084427380E2
:10300000A8BF0446B2F90600B1F90620B480824296
:10301000A8BF0246A542F28004DC9342CCBF002048
:10302000012070BD002070BD024B01461B68587C1A
:1030300000F002B8400000200128F7B506460C4613
:1030400062DC334D6B6803B19847012C04D0022C2D
:1030500020D0002C58D133E005EB8605AF68AFB91E
:103060003046FDF777FD019000284DD0C3680D2153
:1030700001A85B6A98470346002845D0214601987D
:103080009847AB6838460133AB603EE0781CA860D7
:1030900020463AE03046FDF75DFD0190002833D030
:1030A000C3680D2101A85B6A9847044600282BD00D
:1030B0002B6803B1984702210198A047002024E023
:1030C000B4002B199B68012B01D0012015E030467C
:1030D000FDF740FD01900028F7D0C3680D2101A83D
:1030E0005B6A984706460028EFD0094B1B6803B17E
:1030F000984700210198B04700202544AB68002B79
:1031000018BF013BAB6000E0012003B0F0BD00BF81
:103110002064022081F07F4180F07F400B0E4FEA57
:10312000106302FB03F24FF0FF0308BF20F07F4162
:10313000B2FBF3F230B5C0F307249D1A00F0FF1084
:1031400044F080730C0A04F0FF146C4302FB034448
:1031500001F0FF13424304F0FF2405FB0321090A99
:1031600001F0FF1144EA010080F07F4030BD000013
:103170002DE9F04F87B006460F4690469DF8503037
:103180000493129B9D00109B05EB83030393002384
:103190000193184B139A0199914228D0DDF8489079
:1031A000C246B34602975BF8040B0499020E029CD8
:1031B00020F07F400593C2F1FF024A43FF21B2FB9A
:1031C000F1F254F8041BD2B202941C68A047B9F182
:1031D000010920F07F40059B4AF8040BE3D1039AD4
:1031E0002E44A8441744019A01320192D2E707B055
:1031F000BDE8F08F6400002080B483B000AF786039
:10320000064B1A687B685A60044A7B68136000BFEB
:103210000C37BD465DF8047B704700BFE8620220B2
:10322000C9B2034670B52AB19C0703D003F8011B4D
:10323000013AF8E7950801D11A441AE04FF0013439
:1032400002F003024C43032D1E4603F1100309DD77
:1032500043F8104C043D43F80C4C43F8084C43F839
:10326000044CF0E706EB85039E42E5D046F8044B9C
:10327000FAE7934202D003F8011BFAE770BD0000A1
:103280000B0EFF2B10B50E4C10D1030E08D16FF0B2
:1032900010035A436369FF3240EA0260184010BDD0
:1032A000FF2B03D1636901EA030010BD02EB021298
:1032B000044BD2B21B6898476169084010BD00BF3B
:1032C0006C00002064000020024B5A6958611046CF
:1032D000704700BF6C000020044B1B685A7C044BF5
:1032E00053F822301B691B68184700BF40000020BC
:1032F0001C6502202DE9F04F8FB0DFF818E205467B
:103300009046189C1D9E0294199CDEF800E00894DB
:103310001B9C0091039401931A9F1C9C0496BEF180
:10332000000F02D0DEF800407AE0029B089A1343B7
:10333000012B7AD1754B01991868009BB0F90A20CE
:10334000D31A002B07DDC91A002940F3DB80039E46
:1033500006FB034400E0009A9DE848001E44B0F9D3
:103360000E30013EF61A002E03DD891B002940F3C2
:10337000C98005EB0803B0F90C60013B9B1BB0F959
:103380000860002BC8BFC3EB0808B54231DA731BD5
:10339000082FC3EB080827D00DDC022F14D0042F10
:1033A0001AD0012F26D123F0070604EBE30403F023
:1033B000070335441EE0182F18D0202F16D0102FE9
:1033C00018D104EB430413E023F0030604EBA30439
:1033D00003F0030335440DE023F0010604EB63041E
:1033E00003F00103354405E01C4401E004EB8304D1
:1033F00035460023B8F1000F40F38480467C4448F2
:1034000050F82600049ED0F80CE01C93039B189102
:1034100029461A9343461D961B941997DEF80440DB
:10342000A4460FB0BDE8F04F6047C7F10803F3466C
:10343000DFF8D8A00B93029BCDF818E0013B0D9369
:10344000069B019A93425DDA009A089B1344099304
:10345000013B0A93DAF800300A99B3F90A208A424C
:1034600048DCB3F90E30009A9A4243DC4FF0000971
:103470002E460794CDF81490059B43453ADAB9F1EE
:10348000000F06D1079B4FF0080993F800B00133F5
:1034900007930B9B0BFA07F2C7EB09094BFA03F3EF
:1034A0005FFA82FB13F0FF0104D1DAF80020127CEE
:1034B000920717D4DAF80020D26B10680C900498A9
:1034C00010B150F8213000E0DBB2136030460D9AA5
:1034D0000A9B3244009900F077F8DAF800300C9A31
:1034E000DB6B1A60059B029A013305933346134444
:1034F0001E46C1E7069B01330693039B1C44099BB0
:1035000000939DE70FB0BDE8F08F00BF40000020A2
:103510001C65022024650220114B30B41C680D4646
:10352000B4F90A308B4219DCB4F90E30994215DC3B
:10353000B4F90810B4F90C308142B8BF0146934287
:10354000A8BF1346994209DC607C064A52F8200065
:10355000C26894682A46A44630BC604730BC7047B5
:10356000400000201C650220154B0A461B68B3F979
:103570000A10914230B4044620DCB3F90E108A429E
:103580001CDCB3F90810814218DCB3F90C10884236
:1035900014DC197C587C11F0010F0A4951F8200005
:1035A00004D0C3682146DB6930BC1847C168DB6BB7
:1035B0008D6921461B68AC4630BC604730BC704703
:1035C000400000201C65022073B5134C2468B4F938
:1035D0000850B4F90C608542B8BF05469642A8BFB2
:1035E0001646AE4215DBB4F90A208A42B8BF0A4635
:1035F000B4F90E108B42A8BF0B469A4209DC607CDE
:10360000064951F82000C168009333460C692946E9
:10361000A04702B070BD00BF400000201C65022022
:10362000082103F009BA0000024B1B689B6B186865
:10363000704700BF40000020024B1B68DB6B18681E
:10364000704700BF400000200C2103F0F5B90D21A8
:1036500003F0F2B9024B1B68587C00F003B800BFBE
:1036600040000020092103F0E7B910B50020FDF764
:1036700071FA041C4FF0010018BF0124FDF76AFA2B
:1036800000B10134204610BD024B1B68587C00F08D
:1036900003B800BF4000002010B5FDF75BFA28B169
:1036A000C3680221DB6ABDE81040184710BD37B57A
:1036B0000C461546FDF74EFA019008B901200DE0C1
:1036C000C36804215B6A0DEB01009847034600289C
:1036D000F4D001982A4621469847002003B030BD17
:1036E0000E2103F0A9B9032103F0A6B9032003F0CA
:1036F00004BA042103F0A0B9024B1B68587C00F007
:1037000009B800BF40000020014B1868704700BF97
:103710003C630220012103F08FB9012003F0EDB9D1
:10372000024B1B68587C00F009B800BF4000002025
:10373000014B5868704700BF3C630220022103F030
:103740007BB9022003F0D9B9AFF300802DE9F8432B
:10375000044618B387681FB3144D286820B3226845
:10376000B2F5807F1FDC124B00261B689A42A8BF6F
:103770001A469046464509DAD5F8009057F82600D3
:10378000FFF7AAFD49F826000136F3E7094B1B684D
:103790000BB1204698472868BDE8F883BDE8F88358
:1037A0003846BDE8F8830020BDE8F8834065022074
:1037B00060000020AC630220044B1B685A7C044B61
:1037C00053F822301B695B68184700BF4000002097
:1037D0001C65022070477047C343C0F3074203F0E3
:1037E0007F431A43030400F47F4003F47F03134331
:1037F0001843704738B50A4D2C6864B9094B1868EE
:103800008000FCF7E1FF286038B10748074B40F81B
:10381000043FFFF7F1FC002038BD012038BD00BF98
:103820004065022060000020AC6302200D6F00089C
:103830002DE9F74F1D4EFFF718FF00248046B146D3
:10384000DFF870A044452DDA2046FDF783F938B340
:103850003368204693F811B05C74FFF7E1FE082846
:1038600004DDD9F8003083F811B019E05AF824309B
:103870001A690F4B9A42F4D020460025FFF7F2FE5A
:1038800003469D42EDDAEFB2019301353846FFF76A
:1038900093FF39460246204600F06EF9019BF0E79F
:1038A0000134CFE703B0BDE8F08F00BF4000002037
:1038B0004C1A01081C6502202DE9F04F87B0904694
:1038C00007460E460393119B109CDA68536AD2F8A0
:1038D00014906BB9604B1B68587CFDF77BFA082885
:1038E00015DD1128B4BF4FF0020A4FF0040A10E0B2
:1038F000012111A8984705460028EBD0039B3246CA
:1039000001943946009343461198A847A0E04FF030
:10391000010A431E00250493039B9E4200F39880F6
:10392000BAF1020F09D0BAF1040F04D0BAF1010FB5
:1039300040F08C8003E0BB467DE0BB4670E0049B1A
:10394000072B00F28380DFE803F00E0A0707040468
:103950000404C4EB070B59E0BB460F233BE0BB4616
:103960004FF63F7319E0BB46C3456FDC32465946FC
:1039700011980BF1010BC8474FF67F7322782B414A
:103980001A40C5F107030135984025F0070310439D
:10399000207004EBE5041D41E6E7C34556DC5946BB
:1039A000324611980BF1010B0593C8476A00059B3D
:1039B00094F800E0013543FA02F1C2F106020EEA82
:1039C0000101904041EA0002227025F0030204EB5D
:1039D000A5041541E1E7C34538DC59463246119844
:1039E0000BF1010B0593C847AA00059B94F800E072
:1039F00003FA02F1C2F104020EEA0101904041EA29
:103A0000000222702C4485F00105E4E704EB0B0171
:103A100088451BDB32461198C84704F8010BF5E7CF
:103A2000C34513DC5946324611980BF1010BC847C8
:103A300024F8020BF4E7C34508DC594632461198D6
:103A40000BF1010BC84744F8040BF4E7013663E7B8
:103A500007B0BDE8F08F00BF400000200D4B1A6892
:103A600010B5517C1C460C4A52F8210040B1C36885
:103A700013B11B68042B01D00068F7E7FDF752F87B
:103A8000236800221A6603F10802BDE810405A615B
:103A900000F02EB8400000201C650220014B1B687E
:103AA0005B68184748000020044B1B681A7C5207CB
:103AB0004CBFDB6B9B6B1860704700BF4000002061
:103AC00037B5094C0546694623685A7C074B53F8BD
:103AD0002200C3681B6B984720686A462946083055
:103AE000FFF777FA03B030BD400000201C650220CC
:103AF000044B1968044B4A7C083153F82200C36810
:103B00001B6B1847400000201C650220014B1B68FE
:103B10001B68184748000020044B1B681A7C52079A
:103B20004CBF9B6BDB6B1860704700BF40000020F0
:103B300037B50C461546FDF70DF8019008B9012080
:103B40000CE0C368162101A85B6A98470346002869
:103B5000F5D001982A4621469847002003B030BD91
:103B6000014B83E8030070473C630220014B1B6854
:103B70009B6818474800002037B50C461546FCF7EF
:103B8000E9FF019008B901200CE0C368102101A8E9
:103B90005B6A984703460028F5D001982A462146DB
:103BA0009847002003B030BD37B50C461546FCF7EA
:103BB000D1FF019008B901200CE0C3680B2101A8D6
:103BC0005B6A984703460028F5D001982A462146AB
:103BD0009847002003B030BD13B50C46FCF7BAFF80
:103BE000019008B901200BE0C368092101A85B6AB4
:103BF000984703460028F5D00198214698470020B1
:103C000002B010BD37B50C461546FCF7A3FF019076
:103C100008B901200CE0C3680A2101A85B6A984733
:103C200003460028F5D001982A46214698470020EF
:103C300003B030BD10B5074C2368186BFFF74CFB81
:103C4000FFF76AFF2368586BFFF746FBBDE810409B
:103C5000FFF72ABF400000202DE9F04F8FB0DFF8BA
:103C6000CCE10C461746189DDEF800E00295199D40
:103C7000079008951B9D01930395DDF868A01C9E95
:103C8000DDF874B01E9DBEF1000F02D0DEF80040DA
:103C900054E0029B089A1343012B54D1614B1868DE
:103CA000B0F90A20531A002B0ADD0199C3EB010E6B
:103CB000BEF1000F40F3B280039901FB036602E0FE
:103CC000DDF804E00A46019B1C44B0F90E30013CCB
:103CD000E41A002C05DDC4EB0E0EBEF1000F40F31C
:103CE0009D80079BB0F90C103B44013B5B1A002BF5
:103CF000C8BFFF1A079B591BB0F90830994209DA6F
:103D00005B1A1D44FF1A23F0070306EBE50605F0D6
:103D100007051944002F40F38180407C424B039CEF
:103D200053F82000C368CDF874B01C951B961A9404
:103D3000CDF864A0CDF860E05C683B46A4460FB0C7
:103D4000BDE8F04F6047CAF108037546DFF8D4902C
:103D50000B93029BCDF814E0013B0D93059B019A58
:103D600093425BDA089BE3180993013B0A93D9F865
:103D700000300A99B3F90A208A4248DCB3F90E30C0
:103D80009C4244DC079B4FF0000806960093CDF858
:103D90001080049BBB423ADAB8F1000F05D1069BB4
:103DA0004FF008081D78013306930B9BCAEB0808F7
:103DB00045FA03F305FA0AF513F0FF01EDB204D159
:103DC000D9F80020127C920719D4D9F80020D26BC0
:103DD00010680C90BBF1000F02D05BF8213000E0BE
:103DE000DBB2136000990D9A0A9B0A4400982146A1
:103DF000FFF7EAFBD9F800300C9ADB6B1A60049BE2
:103E0000029A01330493009B13440093C1E7059B7E
:103E1000099C01330593039B1E449FE70FB0BDE847
:103E2000F08F00BF400000201C65022024650220A6
:103E300000283BD030F0010329D030F0030328D014
:103E400030F0070327D030F00F0326D030F01F03E7
:103E500025D030F0FF0324D020F4FF7323F00103BA
:103E60000BB320F47F6323F00F03E3B120F4FF438F
:103E700023F07F03BBB1030C1B04A3B1830C9B0491
:103E80009BB110F07F4F0CBF1820202070470120FD
:103E900070470220704703207047042070470520B8
:103EA000704708207047102070471220704708B5EF
:103EB000FFF7BEFF01280FD0831E062B09D9A0F102
:103EC0000903072B07D911380F288CBF00202020A9
:103ED00008BD082008BD102008BD0000024B0122CB
:103EE0001B6883F854207047400000202DE9F04300
:103EF000044687B0002839D0FCF7D6FC04AD034651
:103F0000019003C81E6AD3F8289085E8030001A831
:103F1000FCF7ECFC204600F081FD074630B320465C
:103F200000F0F6F919F0020F804604D0014632463F
:103F3000284600F0EDFE2046FCF7B6FC0190404616
:103F4000FCF7B2FC03903846FCF7AEFC039B019AE9
:103F5000D9690662029001A81162DC61FCF7C6FC17
:103F600003A8FCF7C3FC02A8FCF7C0FC07B0BDE83F
:103F7000F08300002DE9F74FDDF830A098464E4B56
:103F800005460E461746D3F80090BAF1000F28D127
:103F90004A4B1B8853B34A4B1B685A7C494B53F816
:103FA00022305A1C012A21D99A465046FCF77CFC43
:103FB000B0F90010B0F9022001900D4416441FB969
:103FC000B0F904305F1A0137B8F1000F05D1B0F92C
:103FD0000630C2EB030808F1010801A8FCF786FCD3
:103FE00004E0BAF1FF3FE0D14FF0000A0F982C3007
:103FF000FCF7ACFB0446002859D0304A0DF1080B01
:104000000D9B49EA0309138801331380FCF74CFC2C
:104010000E9B4BF8080D03612B4B826A058009EA61
:10402000030346803D4446441343013D013E836201
:104030008580C6805846FCF759FC244B186848B167
:10404000FCF76CFC05462046FCF768FC6B69436195
:104050006C6100E01C605146204600F087FD19F0BD
:10406000200F02D0204600F0EFFA19F0010F1FBF19
:10407000174A13680133136019F0400F02D020462D
:10408000FFF734FF19F0020F0DD02046FCF70CFCAF
:10409000836A009043F0020383625846FCF726FCD3
:1040A000204600F0F9F90121204600F0E5FF204606
:1040B00003B0BDE8F08F00BF4CA502205AA5022036
:1040C00040000020A8A502209F3F3F0050A50220ED
:1040D00064A50220034B00221B6883F85420FFF7DD
:1040E00007BD00BF4000002010B5044640682368AB
:1040F000172B10D007DC0E2B0FD0142B15D1E16835
:1041000000F0A4FB11E0222B0CD0282B0DD1BDE830
:10411000104000F0C1B9E06010BD2146BDE810407C
:1041200000F0B4BA6FF0704300E00023E36010BD0C
:1041300037B5054668B102ACFCF7B6FB44F8040D90
:104140000068FEF7E7F82046FCF7D0FB2846FCF7AE
:104150001DFB03B030BD000073B50446002871D0CC
:1041600000F0DAFD00286DD0204600F06BFC0B213A
:104170000546204600F080FF204600F02DFB20463B
:10418000FCF792FB0190406A08B1FDF729F8002185
:104190002D4B2E4A99602E4B1B6852F82300844207
:1041A00008BF42F823102B4A52F823108C4204BF58
:1041B000002142F823100022274B1B682BB15968BD
:1041C0008C4200D15A601B68F8E70721204600F0B6
:1041D0009AF9019EF069FFF7BFFFF369002BF9D14F
:1041E000204600F01EFB1D4B186850B1FCF796FBF3
:1041F000064640698442F8D12046FCF78FFB4369AC
:104200007361019B01A89A6AD10741BF14490B68E9
:1042100003F1FF330B60930641BF124A138803F189
:10422000FF331380FCF762FB0F4A20461388013BE3
:104230001380FCF7ABFA002D04DB0C4B53F8250080
:1042400000F002FA02B070BDB8630220B0A50220EF
:1042500060A50220A0A50220C4A5022050A502202E
:1042600064A5022058A502205AA50220A8A5022074
:10427000184B1B6870B503B19847002502F038F958
:1042800008B10125FAE7144B1B6893F8544044B178
:10429000124B1C882CB1124B1B68A3B11B689847AA
:1042A000012402F0DFF8064608B10125F9E774B1F0
:1042B0000B4B1B6823B15B6898470A4B1E6006E0F6
:1042C000FEF7B2FE03E00120FEF7AEFEE8E7284667
:1042D00070BD00BFC0A502204000002058A50220EC
:1042E00048A5022054A50220034B1B685A7C034BAF
:1042F00053F82200704700BF40000020A8A502200C
:1043000008B5034610B1FCF709FBC369184608BDA0
:1043100008B5034610B1FCF701FB8369184608BDD8
:1043200008B520B1FCF7FAFAB0F9000008BD08BDE5
:104330002DE9FF412A4D287800284DD1294B04460C
:10434000294E1860294B2A4F1B68DFF8D08058642B
:10435000284BA8601880284B18802046FCF7FAFBF1
:10436000A8B14FF0FF320223002102968DE80C0025
:1043700043F6FF73039108461A46FFF7FBFD6FF003
:10438000704347F8240048F8243000F085F80134E1
:10439000022CE2D1194800F0E3F9194800F0E0F9E5
:1043A000184800F0DDF9184800F0DAF9174800F075
:1043B000D7F9174800F0D4F90D4B186800F044F90C
:1043C000FFF78CFD012313482B70134B6B6204B075
:1043D000BDE8F041FEF710BF04B0BDE8F08100BFBA
:1043E000B863022050A50220297800084000002070
:1043F000A8A5022058A502205AA5022080A50220C7
:1044000070A5022090A5022088A5022078A5022090
:1044100098A50220DC630220296F000868A502200D
:10442000F0B50F4687B00546002833D0FCF73CFABC
:10443000866A0190B2072AD504ACF30303C884E866
:10444000030002D5284600F0EBFB5FB1386802ABF1
:10445000796803C302A9019800F08AF902A92046ED
:10446000FEF79AFD2946204600F08AF978B140F619
:1044700001033340012B06D1019B20461A6A99693A
:1044800000F046FC03E02146284600F0C5FB01A8E9
:10449000FCF72CFA07B0F0BD0021FFF7C1BFF0B563
:1044A0000F4685B01546064648B3FCF7FDF9836A0A
:1044B00004AC02469B0744F80C0D03D42046FCF7DD
:1044C00015FA1CE0394602A8FEF783FD0028F5D056
:1044D0002046FCF70BFA2A4602A9304602F03AFCC5
:1044E0003046FFF70DFF04464CB120462A4602A98C
:1044F000FFF7D5FF2046FCF711FA046AF4E705B090
:10450000F0BD00F019BC1FB5262303916946009346
:1045100000F0BCF805B05DF804FB00007FB50A4A66
:1045200003461068094A52F8200048B100930E2350
:10453000019102A90293CDF814D000F06BFD012087
:1045400007B05DF804FB00BF60A50220B0A5022003
:1045500051EA02032DE9F04180468AB00F46164623
:104560006ED000286CD0FCF79FF904AC0346039092
:1045700006AD03C884E8030085E803007FB19A6AAA
:1045800002F42072802A0BBFBDF81820BDF81C2051
:10459000D71BBF180CBFADF81870ADF81C7086B1F2
:1045A0009A6A02F4A062B2F5807F0BBFBDF81A20B0
:1045B000BDF81E20961BB6180CBFADF81A60ADF8FA
:1045C0001E609B6ADA0302D5404600F029FB039B7C
:1045D00095E8030083E803009B6A9B070AD52A46F7
:1045E000214608A8FDF760FD039B08A81A6A99698F
:1045F00000F08EFBBDF91E00BDF91670BDF9184024
:10460000BDF91010C01BBDF91C60BDF91430611A52
:10461000BDF91A500AACBDF91220F31A0090AA1A7B
:10462000039800F034FD54F81C1D01F10800FEF75A
:10463000B3FC4046052100F01FFD2046FCF756F96B
:104640000AB0BDE8F08100000D4B1A6870B5966C99
:1046500004461D4608B90B4B1C689464204600F0C4
:10466000CEFCFFF745FA2046FCF758F92B68B0F965
:104670000020DA64B0F9022030461A6570BD00BF30
:104680004000002050A5022000F0E2BC38B50546ED
:104690000C4641B1FFF73CFE28B1A5602146BDE8BC
:1046A000384000F0B7BC38BD024B1A68186010469D
:1046B000704700BF4CA5022008B5FBF7ADFE024BCA
:1046C00000221B685A6408BD400000202DE9F34118
:1046D0000F4690460646E0B1FCF7E6F8B0F9045004
:1046E000B0F900400DF1080EB0F902302C1B4EF865
:1046F000040D01343D1BB0F906407046E31A013346
:10470000C3EB0804FCF7F2F8294630462246FFF7CF
:104710001FFF02B0BDE8F0811FB50E4B1B6893F878
:1047200054200AB10C4811E0986C02ACFCF7BCF8BC
:10473000019003C884E8030001A8FCF7D7F8074BF1
:10474000196811B1204600F01BF8204602F0FAFD6E
:1047500004B010BD40000020CC630220B8A50220A8
:10476000024B1A6802601860704700BFC4A502209F
:1047700003460846B3F90220B3F90010FDF7BFBCA9
:1047800073B506460D462846FCF78EF8836A014647
:10479000019013F0020404D101A8FCF7A7F8204609
:1047A00016E03046FEF7F8FB019B01A89C6954B95E
:1047B000FCF79CF8074B1A68954208D05868431BD1
:1047C0005842584104E0FCF791F82546DBE7012008
:1047D00002B070BDA8A5022073B5054601A8FDF77B
:1047E000E1FD0446DCB101212046FDF7C5FD019B3A
:1047F00083B178B11846FCF791F84368AB4209D110
:10480000019E01A92046FDF7E5FD04463046FFF76D
:104810008FFCE7E701A92046FDF7DCFDE1E702B0E8
:1048200070BD13B50446FCF73FF88169019041B1B2
:10483000026A00F06DFA204600F0C3FB0022019BE3
:104840009A6101A8FCF752F802B010BD37B50D46C9
:1048500058B151B102ACFCF727F8294644F8040DD1
:1048600000F005F82046FCF741F803B030BD002306
:104870004B800B80838802889B1A42888B80C38878
:104880009B1ACB80704708B5FFF742FD18B1FCF7C3
:1048900045F8C06908BD08BD2DE9FF415D4F3B6883
:1048A00093F85400002800F0B1805B4A136A144664
:1048B000012B03DD013B00201362A7E0D36902F165
:1048C000140602AD013396E80300D36185E80300C6
:1048D00023B99389ADF80830D38910E0138BD28ABD
:1048E0000133ADF80A201BB2B4F910209A42ADF89A
:1048F000083006DAA389ADF80830638B0133ADF8D0
:104900000A30BDF90A20B4F91230DFF80C819A425E
:1049100004DD236A0020013B236277E03B68986C4A
:10492000FBF7C2FFBDF90820B8F90C3001909A429C
:104930001CD1B8F81230ADF80E30B8F81030ADF820
:104940000C30344B1B689A6C5AB11046FBF7E6FFEB
:10495000804600222946006A01F088FFD8F8182016
:10496000F2E7019B2946D86901F080FFBDF80830C5
:10497000ADF80C303B689A6C6AB11046FBF7CEFF7D
:10498000002280462946006A01F0F4FE0028EDD19D
:10499000D8F81820F0E7019B2946D86901F0EAFE13
:1049A0000028E3D1B4F91030BDF90820ADF80C307F
:1049B0009A4207DD95E8030086E8030001A8FBF7AB
:1049C00095FF97E73B689A6C52B11046FBF7A6FF3C
:1049D000074600222946006A01F00FFFBA69F3E793
:1049E00004AF294657F80C3DD86901F006FF384658
:1049F000FBF77CFFE26944F620639A4289DC95E884
:104A0000030086E80300FFF787FE012004B0BDE83D
:104A1000F08100BF40000020B863022038B5054691
:104A2000FFF731FF044654B1AC4207D02046FBF7F4
:104A300075FF036A9D4202D01C46F4E7002420461D
:104A400038BD000010B50446FBF768FF80690028F8
:104A5000F9D1054B1A68944205D0586884420CBFBE
:104A600001204FF0FF3010BDA8A502202DE9F04134
:104A7000394E86B08046326892F8543013B9FFF749
:104A80004BFE64E0354F3B6A3D460133012B3B62F0
:104A90005DDC906CFBF708FF4FF0FF330090FB618B
:104AA0002F4B1B7813B102AB083004E0836A13F07C
:104AB00002040CD002AB02AC03C883E80300B8F1D7
:104AC000000F0CD041462046FEF766FA07E03B6A2D
:104AD0006846013B3B62FBF709FF204638E033683C
:104AE000204F5A6CC2B1009B1068019304AB51680F
:104AF00003C33B6833B101A8FBF7F8FE3868FBF746
:104B0000D3FE019004A90198FFF732FE204604A9C4
:104B1000FEF742FA01A800E06846FBF7E7FE3968B5
:104B200019B12046FFF72CFE28B133682046996C56
:104B3000FFF726FE18B92B6A013B2B6208E00A4BEF
:104B400094E8030083E80300FFF7A6FE00E00120DD
:104B500006B0BDE8F08100BF40000020B86302202D
:104B60005CA50220B8A50220C46302202DE9FF4104
:104B700006460C4600294CD0FBF796FE00238461C4
:104B8000019003622046FBF78FFE04ACC76944F82E
:104B9000080D2FB9C66101A8FBF7A8FE204636E034
:104BA000019B0DF1100838469D6AFBF77DFE48F821
:104BB000040D05F0080575B9836A1A070BD5019B2A
:104BC00001A81F62029BDE61FBF790FE2046FBF707
:104BD0008DFE40461BE02046FBF788FE4046FBF773
:104BE00085FE3846FBF79AFE0390039B1C6A0CB9BE
:104BF0001E620BE02046FBF791FE002DF4D1836A84
:104C00001B07F1D5039B1E62019B1C6201A8FBF7E9
:104C10006DFE04B0BDE8F081202202F09BB80000D8
:104C200013B5044600B3FBF73FFE836A01909B0770
:104C300017D5406A40B10D4B1B689C4204D0FCF76D
:104C4000CFFA0022019B5A622046FFF759FB044627
:104C50003CB12046FFF7E4FF2046FBF75FFE046A05
:104C6000F6E701A8FBF742FE02B010BDBCA502208A
:104C700070B5054608460C461646FBF74FFE836A9C
:104C80003246214613F4803F284614BF4FF4804338
:104C90002023BDE87040AFF300802DE9FF4180463E
:104CA00017461D460C4681B30846FBF7FDFD866A94
:104CB00002460190B30725D5414602A8FEF789F9BF
:104CC00000B340F601033340012B07D101992B4675
:104CD00002A80A6A8969FFF7E0FF04E02A4602A9F0
:104CE000204602F037F8019BDC695CB1BC4209D078
:104CF00020462A4602A9FFF7D2FB2046FBF70EFE0C
:104D0000046AF2E701A8FBF7F1FD04B0BDE8F08109
:104D10002023FFF7C2BF0000064B10B504461868F9
:104D200028B1A04204D0FBF7F9FD4069F8E710BDB7
:104D3000012010BD50A502202DE9F0438BB006469E
:104D40000D4614460021102206A8FBF7B4FA002EE7
:104D500043D00DB9002C40D030460DF10808FBF7C8
:104D6000A3FD0346019022460AAF03C888E803006A
:104D700018462946FDF7C3F901982246294608300E
:104D8000FDF7BDF957F8243DD3F81C903846FBF7E2
:104D9000ADFD22462946484602F02DF83046FBF785
:104DA00083FD826A019092070AD5816941B1026A46
:104DB000FFF75EFF019B40461A6A9969FFF758FFAB
:104DC0003846FBF793FD032306A93046069304AB50
:104DD00004950993059400F01DF90BB0BDE8F0832C
:104DE0002DE9F04188B044F220040390FBF75CFD0C
:104DF000034600F10802059006AE9D6A9F692C40AB
:104E0000D3F8108092E8030086E8030005A8FBF7BA
:104E10006DFD002C35D0B8F1000F17D00399304646
:104E2000FFF7AEFC90B10398FFF70EFC69070FD5B2
:104E300027B105F0010585F0010500E00125009589
:104E4000002303AA11493046FCF7ECF9002403E0E3
:104E50000124039800F068F80398FBF725FD826AA7
:104E6000059022F48043920423F0200348BF43F0CE
:104E70000403836205A8FBF739FD054A1388013B4B
:104E80001380204608B0BDE8F08100BF917800088B
:104E900058A50220F0B589B00446FBF705FD076967
:104EA000856A02AE0190083003C886E8030001A8B5
:104EB000FBF71CFD002F32D0AB0730D52E2120464A
:104EC000FFF7E2FB174B15F4805F1A781D4602F1DD
:104ED00001021A700AD00F23059407960493FFF776
:104EE000EBFB04A9204600F095F811E03046FFF7EF
:104EF000BDFD68B10F27059404970796FFF7DCFB0B
:104F000004A9204600F086F8FFF7C6FC0028F2D17D
:104F10002B782F212046013B2B70FFF7B5FB09B002
:104F2000F0BD00BF5CA5022037B50446FBF7BCFC12
:104F300040F60103826A01901340012B05D001A8BD
:104F4000FBF7D4FC204602F055F8144B1B6813B352
:104F5000204602F0ADF82046FBF7E0FC8569046AC4
:104F6000CDB194B12046FBF7D9FC836A03F003036B
:104F7000032B02D1204602F051F8204602F098F8A7
:104F80002046FBF7CBFC046AEBE72846FBF7C6FCA0
:104F9000046A8569E4E703B030BD00BF64A5022060
:104FA000B0F90020B0F904309A4208DCB0F90230C0
:104FB000B0F906008342CCBF0020012070470020DA
:104FC000704770B50446FBF7A9FC05468069A8B197
:104FD000FBF7A4FCC36906469C4205D12046FBF7BB
:104FE0009DFC036AF36170BD43B11846FBF796FC64
:104FF000036A9C42F8D12B6A036270BD70BD08B58C
:10500000FFF720FD002803DBBDE80840FDF70CB9E1
:1050100008BD000070B50D4C06460D462368132BE5
:1050200012DCFBF77BFC02696E6042B12368284604
:105030000133236090472368013B236070BD2846FD
:10504000BDE87040FFF750B870BD00BFE8630220B4
:1050500030B585B0044610220D4668460021FBF7A6
:105060002AF92046FBF75AFC03691BB101946846F4
:105070000095984705B030BD1FB504AB019043F8CB
:10508000101D1946FFF7C6FF05B05DF804FB2DE9BA
:10509000F04F8BB0D0F81CB00393BDF80C300191E9
:1050A0000493BDF8043002920593BDF85030069386
:1050B000BBF1000F5ED05846FBF7F6FB826A099001
:1050C00002F42071B0F900A0B0F902308029B0F9E3
:1050D0000480B0F9069008D0B1F5207F07D101997E
:1050E0000AEB0106039936B205E0049900E0059940
:1050F00001EB0A0636B202F4A06201EB0805B2F534
:10510000807F2DB207D0B2F5A06F0AD1029A9F1806
:10511000149A3FB202E0069AD7183FB209EB020494
:1051200005E0BDF80810CF1801EB09043FB2B6EB5B
:105130000A0124B2A7EB030200D122B1584607931B
:10514000FFF7DFF9079BAD1BCAEB0808E41BC3EBB5
:105150000909B5EB0801C9EB040200D112B15846A8
:10516000FFF7F6F90AA850F8043DD3F820B0FBF792
:10517000BDFB9DE70BB0BDE8F08F0000F8B5274EF2
:10518000054608180C46F368B26B013B1344834292
:1051900005D34B591BB943681D4402F021F8B36B8A
:1051A0009C420AD954F8047CE71B3B682BB97B6806
:1051B0003C4638461D4402F013F80F2306EBC302A9
:1051C000126C954203D213F1FF33F7D223E00F2B79
:1051D00021D80833601906EBC3025168002224610C
:1051E000A16084E8240040F8045C04F1080001B1E7
:1051F000486006EBC303A160E2605860336807496A
:10520000EA1896F8293032602BB9CB689B1A8A6865
:10521000934288BF8B602846F8BD00BF40640220DF
:105220002DE9F843394E044601F04EFD356C3368E4
:10523000AC4224BF033424F00305344C0C35AB429C
:105240003ED3236B62689A420FD97368776A013B39
:105250004FEAC7087360736B03EB0802526872620F
:10526000012203F8372057B92AE0013B236301F0FC
:10527000ABF8236B013323630028E6D020E00F2333
:1052800006EBC302126C95420CD213F1FF33F7D236
:1052900008E094682CB16268954214D9A268002A8B
:1052A000F7D101330F2B03D806EBC302526CF6E79C
:1052B000284601F0B5FF0028E1D0384601F050FF44
:1052C0000020BDE8F883D4F804902046336CC5EB89
:1052D00009020C339A4238BF4D4601F081FF736BCF
:1052E00061194D4598444FF00003C8F80440276009
:1052F0006560A360246141F8045C03DAC5EB090032
:10530000FFF73CFF3846BDE8F88300BF4064022049
:105310000120704710B550F8044B013A0C60194455
:10532000F9D110BDF0B5DFF850E006460D46144641
:10533000DEF800E01F46BEF1000F03D0F446BDE8E2
:10534000F040604756F8043B013C6FEA0302C3F3A8
:10535000074102F07F4241EA02014FEA034203F4AF
:105360007F4302F47F0242EA010243EA02032B6018
:105370003D44E7D1F0BD00BF546202202DE9F8435F
:105380008146FEF767F90746FEF77EF90646E0B16B
:10539000002056F820304B4517D001308742F8DC0A
:1053A00000246FF07F48254656F825104846FBF745
:1053B000BFFA804588BF2C4605F1010588BF8046AD
:1053C000AF42F1DC2046BDE8F883BDE8F8837047C2
:1053D000C343C0F3074203F07F431A43030400F4BE
:1053E0007F4003F47F031343184370472DE9F84FC0
:1053F000DDF828B081460D4616461F46DDF82CA084
:105400001446884639F8020BD847D047013C48F883
:10541000040BF7D11F2F06D83A4631462846BDE87F
:10542000F84FFDF731B9BDE8F88F2DE9F84FDDF8F9
:1054300028B080460D4616461F46DDF82CA089464A
:10544000044614F8010BD847D047331B49F8040B26
:1054500018EB030FF5D11F2F06D83A4631462846E0
:10546000BDE8F84FFDF710B9BDE8F88F2DE9F04120
:10547000064608300F46904601F05AFCB4681CB34B
:10548000474521D0F368082130469B6A9847A269B6
:10549000636953435843A368C20823B153F82710E4
:1054A00053F8285004E0656802FB075102FB0855D9
:1054B000A36B23B142463946B069984703E0034BDA
:1054C00028461B6898472560BDE8F08158000020F9
:1054D0002DE9F04F87B00746FBF7E6F9B0F90090E9
:1054E000B0F904600DF11808B0F90250C9EB0606D6
:1054F000B0F906B048F8040D0136D0F824A04046B3
:10550000C5EB0B04FBF7F2F9002E04F101044CDDAE
:10551000002C4ADDBAF1000F49D05046FBF7C4F920
:1055200006ABB0F9046043F8080DB0F90640184620
:10553000FBF7DCF94E4501D1AC4231D02A46494651
:105540005046FBF7A5FF2BE0836A43F48033836268
:105550004046FBF7CBF92846FBF774FF80465046E0
:10556000FDF780F82846FBF720FF04FB06F22B4BE3
:105570002B4992001B6809782A4C98472A4D3846D7
:1055800026682F60FEF7CCFE20603846FFF782FCCD
:10559000002026602860FDF765F84046FBF752FFC3
:1055A0003846FBF7BBF9406A35E0002033E0FEF7F0
:1055B0009BFE874212D1FEF79FF88246FEF7B0F8B5
:1055C000564502DC844209DD00E0564684423146FD
:1055D000A8BF044638462246FFF778F8134B4FF031
:1055E000010A2946324602934846114BCDF800A0E5
:1055F00001932346FBF7B0FF05463846FBF754F905
:1056000005904562002D9FD14046FBF76FF9384663
:10561000FFF740FC284607B0BDE8F08F5C00002093
:10562000840000203C640220BCA50220641A01080A
:10563000D819010873B5154602AB214A214C43F82D
:10564000081D194601901268904723680190586917
:1056500040B90120FDF7E8FC2268D3695B693BB9DA
:10566000194D22E02946FCF7A3FD0028F1D124E0E2
:10567000164C9B68216841B1B2F9225001980099FB
:10568000984723682846984714E00099019898475E
:1056900010E001A8FCF7BAFE23680646DB691B6828
:1056A00098472B680BB130469847009B013B002B75
:1056B0000093EEDA0020FDF7B7FC02B070BD00BF2A
:1056C0004C00002040000020306502202C650220A4
:1056D0002DE9F04F89B080469B461398129B042811
:1056E00003910093149B02920193159CDDF858A03E
:1056F000179DD8F8083016D00EDC01281DD00228DE
:1057000040F05482AD4A00274FF0C00C126804925A
:10571000039A52440392BCE0082800F06F812028CD
:1057200000F01A8242E2A54A00274FF0F00C1268FE
:105730000492039A5244039205E1DE6B16B9DDF838
:1057400008904DE09D4B1B681B7CDF07F7D4019B45
:10575000B44616951593009BCDF84CB01493234690
:10576000CDF848A0D8F8180009B0BDE8F04F604760
:10577000039BD5F804C003EB0A07904BD8F80860E8
:105780001B681B7C03F00303022B30D0032B4FD08C
:10579000012B4DD08A49CAF1080223782868CB5CD6
:1057A000316A43FA0AF301FB09773168264601EBB7
:1057B0008707594613F0010F0CBF8646E646013AAB
:1057C00009BF73785B087E4A013647F804EB04BFD3
:1057D000D35C08220139EDD1019B09F101091C4478
:1057E000029B009AC3EB09039A42C1DCDEE12378F5
:1057F000CAF10801724A0020D25C336A42FA0AF206
:1058000003FB0977336803EB87072346D60748BFB6
:1058100047F820C0013900F1010009BF5A78520849
:105820006749013304BF8A5C08218345EED1D3E781
:10583000D8F8103056469B68984707EB0B03069044
:10584000CDF814B004940793079B059A9F1A049B04
:105850001A78802333411A420BD04A4639464046D3
:1058600001F05CF9069B4A4639464340404601F048
:1058700029FE0136082E01BF049B00260133049344
:10588000059B013B0593DFD1A6E735B9019A0137A6
:105890001444009A9742F8DB88E1029A196A3A4464
:1058A000039894F800E001FB02011A6802EB810200
:1058B0000499097C904611F0030106D00229E5D134
:1058C0005046A1464FF000081DE051465E46A146F5
:1058D000C1F10300013140000429C0F1060208BFF4
:1058E00000214CFA02F202EA0E0222FA00F255F806
:1058F000222048F8042B04BF99F801E009F10109BE
:10590000013EE5D1C2E7C0F1030601307600C6F1E1
:1059100006014CFA01F101EA0E01F1401CBF55F8F5
:10592000211042F82810042808F1010802BF99F854
:1059300001E0002009F10109D845E4D1A6E735B915
:10594000019A01371444009A9742F8DB2EE1029A3B
:10595000196A3A44039894F800E001FB02011A68BE
:1059600002EB81020499097C904611F0030106D0F4
:105970000229E5D15046A1464FF0000822E05146E9
:105980005E46A146C1F10100013180000229C0F14B
:10599000040208BF00214CFA02F202EA0E0222FAC7
:1059A00000F255F8222048F8042B04BF99F801E0D2
:1059B00009F10109013EE5D1C2E700BF4000002026
:1059C000F4DF0008C0F101060130B600C6F10401A1
:1059D0004CFA01F101EA0E01F1401CBF55F821100B
:1059E00042F82810022808F1010802BF99F801E0E6
:1059F000002009F10109C345E4D1A1E71E6C6D4FF8
:105A000026B9D7F800C04FF0000E19E03868007CC6
:105A10008007F6D4002DF4D0019BB446159514935D
:105A2000009BCDF848B013932346D8F8180009B06E
:105A3000BDE8F04F60473DB9019A0EF1010E1444E4
:105A4000009A9645F7DBB1E0029A196A724403980E
:105A500001FB0202196801EB82029CF8101011F0A0
:105A6000030103D00229E7D1002070E02046594607
:105A7000072900F1080702F1200633DD17F8082C8A
:105A80000839384655F8222046F8202C17F8072CFC
:105A900055F8222046F81C2C17F8062C55F8222021
:105AA00046F8182C17F8052C55F8222046F8142C27
:105AB00017F8042C55F8222046F8102C17F8032C60
:105AC00055F8222046F80C2C17F8022C55F8222005
:105AD00046F8082C17F8012C55F8222046F8042C1B
